:020000040800F2
:10000000E0040020D9000008392500083F2300083B
:1000100000000000000000000000000000000000E0
:100020000000000000000000000000003D25000866
:1000300000000000000000003B2500083F250008EC
:10004000EB000008EB000008EB000008EB000008E4
:10005000EB000008EB0000080D020008EB000008B0
:1000600000000000EB000008EB000008EB000008B7
:10007000EB000008EB000008EB000008EB000008B4
:10008000EB000008EB000008EB000008EB000008A4
:1000900000000000EB000008EB000008EB00000887
:1000A000EB000008EB000008EB0000086D360008CC
:1000B000EB000008EB00000800000000000000005A
:1000C0000448854600F090F800480047E1360008F3
:1000D000C046C046E004002004488047044800476A
:1000E000FEE7FEE7FEE7FEE7FEE7FEE7D9250008AC
:1000F000C100000830B50B46014600202022012433
:1001000009E00D46D5409D4205D31D469540491B4B
:100110002546954040191546521E002DF1DC30BD94
:10012000F0B51FB40646002082B005464024019178
:1001300000901BE0019922460F46304600F042F83D
:10014000049A059B801A994110D3104619462246FD
:1001500000F028F8361A8F4101972246012000212D
:10016000009F00F01FF838184D4100902046641E93
:100170000028DFDC019B00982946324607B0F0BD1D
:10018000D2B201E00270401C491EFBD2704700222F
:10019000F6E710B513460A4604461946FFF7F0FF86
:1001A000204610BD10B5202A04DB0146203A9140BC
:1001B000002010BD914020239C1A0346E3401943C0
:1001C000904010BD10B5202A04DB0846203AD040EC
:1001D000002110BD0B46D340D0402024A21A9140EC
:1001E0000843194610BD0000064C0125064E05E0E7
:1001F000E36807CC2B430C3C98471034B442F7D348
:10020000FFF762FF583700087837000810B508205C
:1002100000F046F810BD72B6FEE70000F8B50146E2
:100220000024203101220A714B79022B03D00421D2
:10023000C16301242DE003681D680E26B5431D60CF
:1002400003681D686D086D001D60436C1D68FF2606
:100250000136B5431D60104B5D68066C1C273E409F
:100260001746B7403D435D60836CC56C5D60036DB0
:10027000002B07D01E68FF250135AE431E60436D7D
:10028000856D5D604A7100220A71816B002900D082
:1002900088472046F8BD000000000240704700007B
:1002A00070B5084D0446E868204203D0EC60204653
:1002B00000F00AF82869204203D02C612046FFF79D
:1002C000EDFF70BD0018024070470000FEB5044607
:1002D0000520002700070D4684420FD08148844244
:1002E0000CD08148844209D08048844206D080489E
:1002F000844203D0B1217FA003F0F1F92868010402
:10030000090C01D0000C03D0B2217AA003F0E7F968
:10031000686800281FD001281DD011281BD0022892
:1003200019D0122817D08249884214D081498842B6
:1003300011D0814988420ED0804988420BD0804933
:10034000884208D07F49884205D0032803D0B321D2
:1003500068A003F0C4F9A868002807D00128FCD0E1
:100360000228FAD0B42163A003F0B9F9B4E0012067
:10037000B840029006407BD06868022801D012285D
:1003800027D10520000784420FD0564884420CD064
:100390005548844209D05548844206D05448844286
:1003A00003D0C32153A003F09AF92869072803D981
:1003B000C42150A003F093F9F80880000319186ACB
:1003C0007907CA0E0F219140884329699140014362
:1003D000196221687A0003209040814301920090C5
:1003E00028798007800F90400843206068680128C2
:1003F00005D0022803D0112801D012281DD1E868A9
:10040000002809D0012807D0022805D0032803D0EE
:10041000D82138A003F063F9A1680098019A8143BC
:10042000E86890400843A060606802998843297991
:10043000C906C90FB94001436160E0680099019A9B
:100440008843A96891400143E1606868C00042D5D3
:10045000B9083D4889000B18186EB907CA0E0F215C
:1004600091408843052109078C4202D1002110E008
:1004700031E01C498C4201D101210AE01A498C4229
:1004800001D1022105E019498C4201D1032100E08C
:1004900005219140014319662B48803001686A6844
:1004A000B143D20300D53143016041686A68B1436A
:1004B000920300D531434160234801686A68B14323
:1004C000D20200D53143016041686A68B1439202AB
:1004D00000D5314341607F1C2E683046F84000D083
:1004E00045E7FEBD0004005000080050000C00501D
:1004F000001400502E2E2F447269766572732F53AC
:10050000544D3332473078785F48414C5F447269CC
:100510007665722F5372632F73746D333267307840
:10052000785F68616C5F6770696F2E630000000020
:100530000000111000002110000031100000121006
:1005400000002210000032100018024070B515465D
:100550000C00064604D1FF219B3108A003F0BFF830
:10056000002D08D0012D04D0FF219C3103A003F001
:10057000B6F8B46170BDB46270BD00002E2E2F4479
:100580007269766572732F53544D333247307878E1
:100590005F48414C5F4472697665722F5372632FD6
:1005A00073746D3332673078785F68616C5F677041
:1005B000696F2E63000000000148806870470000EA
:1005C00000000020024881684268891881607047F5
:1005D0000000002010B5084800240168821511436E
:1005E0000160032000F00AF8002801D0012401E096
:1005F00000F028F8204610BD0020024070B50F4ED4
:10060000002471680546002915D07D20C000FFF741
:1006100071FD01460A480068FFF76CFD00F0CCFE52
:10062000002808D1042D06D200222946401E00F0E1
:100630004FF8356000E00124204670BD0000002026
:100640000C00002008B5094801680122114301602F
:1006500000681040009005484038C26B01040A430E
:10066000C263C06B0840009008BD0000401002400B
:1006700010B5040003D5952105A003F030F8002C37
:1006800005DBE106C90E012088401049086010BD55
:100690002E2E2F447269766572732F53544D333268
:1006A000473078785F48414C5F4472697665722FB5
:1006B0005372632F73746D3332673078785F68617B
:1006C0006C5F636F727465782E63000000E100E078
:1006D00070B50C460546042903D3872103A002F018
:1006E000FEFF2146284602F0C9FF70BD2E2E2F4482
:1006F0007269766572732F53544D33324730787870
:100700005F48414C5F4472697665722F5372632F64
:1007100073746D3332673078785F68616C5F636FD4
:10072000727465782E63000070B501267602044667
:10073000B04206D07000844203D0711C0FA002F0BA
:10074000CEFF1D4D286803214902884320432860BD
:10075000B4420ED119480621006848431849FFF7F2
:10076000C9FC401C02E0002805D0401E696949050B
:10077000F9D4002070BD032070BD00002E2E2F4440
:100780007269766572732F53544D333247307878DF
:100790005F48414C5F4472697665722F5372632FD4
:1007A00073746D3332673078785F68616C5F70772F
:1007B000725F65782E630000007000400C0000201E
:1007C00040420F00F8B5044600680026B64DC10748
:1007D00013D1810611D441060FD401050DD4810532
:1007E0000BD4410509D4410407D4810308D4800205
:1007F0007ED47321ADA002F072FF206880036AD519
:10080000606A002700280ED0C11FF9390BD0C11F24
:10081000FF39FA3907D003210902884203D07B212E
:10082000A2A002F05CFFA0484038C06BC00009D411
:100830009D484038C26B01040A43C263C06B084044
:1008400001270090A8480168821511430160FFF755
:10085000B3FE009005E0FFF7AFFE0099401A0228B2
:1008600025D8A1480068C005F5D5E869032109022B
:1008700008400FD0616A81420CD0E8690321090267
:10088000EA698843012109040A43EA61EA698A4363
:10089000EA61E861C0070FD0FFF78EFE009008E024
:1008A000FFF78AFE0099411A9048814201D9032638
:1008B00009E0E8698007F3D5E86903210902884364
:1008C000616A0843E861002F05D077484038C26B61
:1008D00001048A43C2632078C00714D060680028EE
:1008E0000BD0012809D0032807D0022805D000E04A
:1008F00095E0D1216DA002F0F2FE68696168800880
:100900008000084368612078800616D50327A06818
:10091000BF0200280CD001218902884208D0B842C9
:1009200006D04900884203D0E82160A002F0D7FE3B
:100930006869A168B843084368612088800516D5B6
:1009400003276069BF0400280CD001218904884274
:1009500008D04900884205D0B84203D0F32153A003
:1009600002F0BDFE68696169B84308436861208888
:10097000400516D50327A0693F0500280CD00121AA
:100980000905884208D04900884205D0B84203D002
:10099000FC2146A002F0A3FE6869A169B8430843A0
:1009A00068612078400615D5E06800280BD0012149
:1009B0000903884207D04900884204D0FF2106314C
:1009C0003AA002F08CFE6869032109038843E168BC
:1009D00008436861208840041ED50127E069BF07ED
:1009E000B84209D0002807D07900884204D0FF21FE
:1009F0001E312EA002F073FE6869E1698000800854
:100A000008436861E069B84206D127484038C168A8
:100A1000012212041143C160206880021AD5012707
:100A2000206ABF05B84206D0002804D0FF213B3120
:100A30001EA002F054FE6869216AB8430843686149
:100A4000206AB84206D118484038C168012212060F
:100A50001143C1602088000523D503272069BF0307
:100A600000280DD001218903884209D0490088421D
:100A700006D0B84204D0FF215E310CA002F02FFE58
:100A800068692169B84308436861012021698003CE
:100A9000814206D104484038C16801221204114342
:100AA000C1603046F8BD0000401002402E2E2F4499
:100AB0007269766572732F53544D333247307878AC
:100AC0005F48414C5F4472697665722F5372632FA1
:100AD00073746D3332673078785F68616C5F72630E
:100AE000635F65782E63000000700040881300008B
:100AF000F8B50E4605007DD02868410701D0C00832
:100B000003D0804980A002F0EAFD002E08D0012E1B
:100B100006D0022E04D07B497BA0491C02F0DFFDE9
:100B2000874F38684007400FB04213D23868C0087A
:100B3000C00030433860FFF73FFD044605E0FFF793
:100B40003BFD011B7F48814271D838684007400F48
:100B5000B042F4D128687C4C810735D5400704D5D4
:100B6000A068072109030843A060A868002824D0D2
:100B70000121C902884220D00921090288421CD0E3
:100B800005214902884218D00B210902884214D05D
:100B900003218902884210D00D21090288420CD01D
:100BA00007214902884208D00F210902884204D057
:100BB000544955A0253102F092FDA0680F21090289
:100BC0008843A9680843A0602878C00748D06868AF
:100BD000002825D001281AD0042813D0032822D0B9
:100BE000022817D0474948A02C3102F078FD6868E8
:100BF000012800E012E00AD002280BD000280FD014
:100C0000032810D050484030C069800704E02068B5
:100C1000800301E020688001002809DB0120F8BD85
:100C200020684005F8E748484030006AEDE72CE0CE
:100C3000A0686968C008C0000843A060FFF7BCFC5A
:100C4000009006E0FFF7B8FC0099411A3D48814248
:100C50001BD8A068382108406968C9008842F1D1D2
:100C600038684007400FB04217D935480168C908B5
:100C7000C90031430160FFF79FFC074607E0FFF71B
:100C80009BFCC11B2F48814201D90320F8BD2C4891
:100C900000684007400FB042F1D1287840071ED5C8
:100CA000E868002814D001218903884210D005216A
:100CB000090388420CD003214903884208D0072148
:100CC0000903884204D00F490FA07F3102F007FDCD
:100CD000A068072109038843E9680843A06000F081
:100CE0004FF8A1683C2289091140184A515CC90695
:100CF000C90EC8401649086016480068FFF77EFC18
:100D0000F8BD0000F60200002E2E2F4472697665B1
:100D100072732F53544D3332473078785F48414CCB
:100D20005F4472697665722F5372632F73746D33EB
:100D300032673078785F68616C5F7263632E63003E
:100D4000002002408813000000100240F83600081E
:100D50000C00002000000020064807490068896850
:100D6000064A4904490F8900515CC906C90EC840AA
:100D7000704700000C0000200010024038370008C7
:100D800010B5204CA068204A8006400F16D0A068FD
:100D90008006410F501001290FD0A1688906490F24
:100DA000022912D0A0688006400F042823D0A06832
:100DB0008006400F032821D0002010BD20680121AB
:100DC0008004400F8140104612E0E1688B07E16823
:100DD0009B0F4906490F491C032B00D01046FFF713
:100DE00089F9E1684904490E4843E168490F491C03
:100DF000FFF780F910BD0120C00310BD7D20000267
:100E000010BD0000001002400024F400F8B50400FA
:100E10007ED0F94D2068F84E403D00280CD0C10727
:100E20000DD1810764D4010773D4400772D4FF2128
:100E30003A31F2A002F053FC2078C00755D00127C8
:100E400060683F0400280AD0B84208D00521090490
:100E5000884204D0FF214031E8A002F040FCA8689D
:100E600038210840E9688907890F102802D008282E
:100E700009D001E0032906D06168B9420AD1286887
:100E80003843286015E0286880032ED56068002864
:100E9000BED02AE005220120120480049142296874
:100EA00002D101432960EAE7B943296029688143F7
:100EB0002960606800280CD0FFF77EFB074604E03D
:100EC000FFF77AFBC01B64287ED828688003F7D51B
:100ED0000BE0FFF771FB074604E0FFF76DFBC01B5B
:100EE0006428F1D828688003F7D4207880076CD56F
:100EF000E068002807D0C11FF93904D0FF217531FF
:100F0000BEA002F0ECFB60697F2808D9FF2102E057
:100F1000BEE093E0CFE07631B8A002F0E0FB072717
:100F20002069FF0200281DD00121C902884219D082
:100F30004900884216D00321C902884212D00121FB
:100F4000490388420ED00521C90288420AD00321F4
:100F50000903884206D0B84204D0FF217731A7A008
:100F600002F0BDFBA86838210840E9688907890FAD
:100F7000102802D0002813D001E0022910D0E06828
:100F8000002847D028682169B843084328602868AA
:100F9000FF21013108432860FFF70EFB07462DE0D3
:100FA0002968490502D5E168002971D069687F2266
:100FB000120291436269120211436960002811D143
:100FC00028682169B84301E096E034E008432860CE
:100FD000286801218004400F81409648FFF78AF875
:100FE0009549086095480068FFF708FB00284FD135
:100FF00021E0FFF7E1FAC01B02287DD828684005F0
:10100000F7D568687F2109028843616909020843AE
:10101000686010E02968FF20013081432960FFF7F4
:10102000CBFA074604E0FFF7C7FAC01B0228E4D852
:1010300028684005F7D42078000739D5A069002832
:1010400006D0012804D0FF21CA316CA002F047FB72
:10105000A8688006400F03280AD0A0690028306ADB
:1010600017D0012108433062FFF7A6FA07460BE0CC
:10107000306A80071CD5A069002896D018E0FFF7D9
:101080009BFAC01B0228B8D8306A8007F7D50FE05A
:1010900088E1400840003062FFF78EFA074604E01E
:1010A000FFF78AFAC01B0228A7D8306A8007F7D456
:1010B0002078400777D5A0680027002807D00128AE
:1010C00005D0052803D05E494CA002F008FBA868B3
:1010D0008006400F042819D0E86BC00008D4E96BE3
:1010E000012000070143E963E96B014001270091FA
:1010F00054480168C90500E029E118D40168821547
:1011000011430160FFF758FA00900CE0F069800786
:1011100049D5A0680028B0D045E0FFF74DFA009906
:10112000401A0228AFD847480068C005F5D5A16825
:10113000012910D004200529F16911D0490849007E
:10114000F161F1698143F161A068002816D0FFF7D1
:1011500033FA00900EE0F06901210843F061F3E7F3
:101160000143F161F7E7FFF727FA0099411A364882
:10117000814288D8F0698007F5D50DE0FFF71CFAA9
:10118000009006E0FFF718FA0099411A2E488142B4
:101190008AD8F0698007F5D4002F04D0E86B0121CC
:1011A00009078843E863E06900287DD0012809D059
:1011B000022807D02521090110A002F090FAE06969
:1011C0000028F2D0A8688006400F0228E0696CD0A1
:1011D0000126360602283BD02868B0432860E8681C
:1011E00080088000E860E86818490840E860FFF778
:1011F000E3F90446ADE00000401002402E2E2F44DB
:101200007269766572732F53544D33324730787854
:101210005F48414C5F4472697665722F5372632F49
:1012200073746D3332673078785F68616C5F7263B6
:10123000632E63000024F4000C0000200000002056
:10124000010200000070004088130000FFFFFEEE66
:10125000206A002807D0022805D0032803D053496C
:10126000534802F03CFA606A702804D94F4950484C
:10127000491C02F034FAA06A08384E2804D9972194
:1012800089004B4802F02BFA0121E06A4904401A18
:101290000F218904884204D944494548C91C02F0F9
:1012A0001EFA7F21490601E07EE056E0206B4018DF
:1012B00003218906884204D93C493D48491D02F072
:1012C0000EFA0721606B490740184900884204D98B
:1012D00036493748C91D02F002FA2868B043286031
:1012E000FFF76AF9074604E0FFF766F9C01B02281A
:1012F0002DD828688001F7D4616A206AA26A084361
:10130000E16A120211430843216B0843616B0843F1
:10131000E968284A11400843E8602868304328609B
:10132000E868012109070843E860FFF745F904462A
:1013300004E0FFF741F9001B022808D82868800163
:10134000F7D531E0FFF738F9001B022801D9032057
:10135000F8BD28688001F5D426E00128F8D0E868B7
:10136000226A8107890F91421CD17021626A014073
:10137000914217D17F21A26A0902014012029142D3
:1013800010D11F214904E26A014091420AD107218C
:101390004906226B0140914204D1400F616B400726
:1013A000884201D00120F8BD0020F8BD5A0200009B
:1013B000FC1100088C80C111094910B5401E8842FB
:1013C00001D9012010BD074C60610321081F02F004
:1013D00055F90020A06107202061002010BD000009
:1013E000FFFFFF0000E000E0F8B50E46044600688D
:1013F0004C4988420AD001218907884206D04A49CF
:10140000884203D049494AA002F069F930680028AF
:1014100012D0102810D020280ED030280CD0402810
:101420000AD0502808D0602806D0702804D03F4940
:101430003FA0491C02F053F9B068802806D000286C
:1014400004D03A493AA0891C02F049F927462037CE
:10145000387F012864D0012038770220787720680F
:101460004568816800912F49884247D170680028FB
:101470003FD00121090588423BD04900884238D03D
:1014800003210905884234D001218905884230D0E2
:101490000521090588422CD003214905884228D01E
:1014A00007210905884224D00121C905884220D09E
:1014B0000921090588421CD005214905884218D018
:1014C0000B210905884214D003218905884210D0D8
:1014D0000D21090588420CD007214905884208D012
:1014E0000F210905884204D0104911A0143102F0DF
:1014F000F6F80F200005854370680543702085438A
:101500000098802231689043B268294302432068E2
:101510004160206882600120787700203877F8BD2C
:101520000220F8BD002C01400004004073060000BA
:101530002E2E2F447269766572732F53544D3332B9
:10154000473078785F48414C5F4472697665722F06
:101550005372632F73746D3332673078785F6861CC
:101560006C5F74696D5F65782E63000070B5040070
:1015700047D02C492068884214D00121890788422D
:1015800010D0294988420DD0284988420AD02849DC
:10159000884207D02749884204D0FF211E3126A067
:1015A00002F09DF8A06800280CD010280AD020284E
:1015B00008D0402806D0602804D0FF211F311EA08B
:1015C00002F08DF8206900280BD0C11FF93908D02E
:1015D000C11FFF39FA3904D0FF21203116A002F0D3
:1015E0007EF8A069002806D0802804D0FF21213190
:1015F00011A002F074F825462035687F002802D03B
:1016000006E0012070BD00202877204600F030F869
:1016100002206877211D206800F0E6FF012068772E
:10162000002070BD002C014000040040002000405C
:1016300000440140004801402E2E2F447269766517
:1016400072732F53544D3332473078785F48414C92
:101650005F4472697665722F5372632F73746D33B2
:1016600032673078785F68616C5F74696D2E6300F3
:1016700008B5006801218907884207D10448C16B79
:1016800001221143C163C06B1040009008BD0000EF
:1016900000100240F8B5064605462036307F0C465D
:1016A000012837D001203077022070770127206889
:1016B0003F03B84216D07900884213D0002811D0D9
:1016C00010280FD020280DD030280BD0402809D06A
:1016D000502807D0602805D0702803D0B049B1A0A9
:1016E00001F0FDFF29688868BC4A1040FF22120201
:1016F0009043886001212368B9488907B94A502B73
:1017000070D00EDC202B04D006DC002BFBD0102B7D
:1017100051D136E10220F8BD302BFAD0402BF7D161
:1017200003E1602B7ED0702B5DD0DB1B44D0BB422D
:10173000EED12B68834208D08B4206D0934204D06E
:10174000974998A02B3101F0CAFFA06800280ED05D
:10175000B8420CD001214903884208D00321090373
:10176000884204D08E498FA02E3101F0B8FF0121AC
:101770006068C90388420AD0002808D0022806D031
:101780000A2804D0864987A02F3101F0A8FFE0681D
:101790000F2804D9824983A0303101F0A0FFE3680B
:1017A0006268A168286800F061FF286881680122EA
:1017B000920311438160B3E02B688342FBD08B42DC
:1017C000F9D09342F7D088488342F4D087488342C7
:1017D000F1D087488342EED0714972A00C3101F0FC
:1017E0007EFF9DE043E02B68834208D08B4206D009
:1017F000934204D06A496BA0133101F070FFA068D6
:1018000000280ED0B8420CD001214903884208D0EC
:1018100003210903884204D0614962A0163101F016
:101820005EFF00E04FE001216068C90388420AD0F2
:10183000002808D0022806D00A2804D0584959A008
:10184000173101F04CFFE0680F2804D9544955A026
:10185000183101F044FFE3686268A168286800F06D
:1018600005FF2968886877221043886058E02B6854
:10187000834208D08B4206D0934204D0484949A005
:101880003F3101F02CFF01216068C90388420AD072
:10189000002808D0022806D00A2804D0404941A0D8
:1018A000423101F01CFFE0680F2804D93C493DA0FB
:1018B000433101F014FFE2686168286801F030F9F3
:1018C000502128682AE02B68834208D08B4206D03A
:1018D000934204D0324933A04F3101F000FF01217F
:1018E0006068C90388420AD0002808D0022806D0C0
:1018F0000A2804D02A492BA0523101F0F0FEE068FA
:101900000F2804D9264927A0533101F0E8FEE268E8
:101910006168286801F015F96021286800F0B2FEBE
:101920000120707700203077F8BD2B68834208D003
:101930008B4206D0934204D019491AA05F3101F0BE
:10194000CEFE01216068C90388420AD0002808D071
:10195000022806D00A2804D0114912A0623101F0F1
:10196000BEFEE0680F2804D90D490EA0633101F0D6
:10197000B6FEE2686168286801F0D2F84021286864
:10198000CCE72B68834208D08B4206D0934204D028
:10199000034904A0723101F0A2FE21682868BDE766
:1019A0002F1200002E2E2F447269766572732F530A
:1019B000544D3332473078785F48414C5F44726908
:1019C0007665722F5372632F73746D33326730787C
:1019D000785F68616C5F74696D2E630088FFCEFF6D
:1019E000002C014000040040002000400044014061
:1019F0000048014010B586B0044614216846FEF741
:101A0000C6FB012120688907884214D10B48416B2D
:101A1000012211434163406B0221104005900420D4
:101A200000900020029003900191049105206946E6
:101A30000007FEF74BFC06B010BD0000001002408E
:101A4000F8B517000D4604460FD0042F0DD0082F0F
:101A50000BD00C2F09D0102F07D0142F05D03C2FFE
:101A600003D08A498AA001F03AFE2868602815D080
:101A7000702813D09449884210D09349103188427D
:101A80000CD091492031884208D08F4930318842AA
:101A900004D07E497EA0491C01F021FEA8680028E0
:101AA00006D0022804D0794979A0891C01F017FEDC
:101AB0002869002806D0042804D0744974A0C91CE1
:101AC00001F00DFE26462036307F012813D001207C
:101AD0003077022070777D483A46012189077C4B98
:101AE00007150C2A76D008DC002A0BD0042A30D047
:101AF000082A4ED14EE00220F8BD102A69D0142ADF
:101B0000F7D1A2E02268824211D08A420FD09A42D5
:101B10000DD0704882420AD06F48824207D06F4889
:101B2000824204D059495AA00F3101F0D8FD29460C
:101B3000206800F0B1FD20688169082211438161AD
:101B400020688169042291438161206881692A6942
:101B50001DE02268824208D08A4206D09A4204D010
:101B60004A494BA0203101F0BAFD2946206800F017
:101B700015FE206882690121C9020A43826120683A
:101B80008169B9438161206881692A691202114320
:101B9000816176E02268824208D08A4206D09A4269
:101BA00004D03A493AA0313101F099FD2946206824
:101BB00000F074FE2068C16908221143C1612068E9
:101BC000C26904218A43C2612068C1692A691FE091
:101BD00000E020E02268824208D08A4206D09A4281
:101BE00004D02A492AA0423101F079FD2946206813
:101BF00000F0D6FE2068C2690121C9020A43C26111
:101C00002068C169B943C1612068C1692A691202AB
:101C10001143C16135E02168814204D01B491CA0F9
:101C2000533101F05CFD2946206800F019FF20685F
:101C3000416D0822114341652068426D04218A43A9
:101C400042652068416D2A6919E02168814204D00B
:101C50000E490FA0643101F042FD2946206800F0D2
:101C60002DFF2068426D0121C9020A4342652068A8
:101C7000416DB94341652068416D2A6912021143E3
:101C800041650120707700203077F8BD240E0000F8
:101C90002E2E2F447269766572732F53544D333252
:101CA000473078785F48414C5F4472697665722F9F
:101CB0005372632F73746D3332673078785F686165
:101CC0006C5F74696D2E630040000100002C0140C0
:101CD0000004004000200040004401400048014052
:101CE00070B5040046D02C492068884213D00121E9
:101CF000890788420FD0294988420CD02849884258
:101D000009D02849884206D02749884203D027496C
:101D100027A001F0E4FCA06800280CD010280AD00D
:101D2000202808D0402806D0602804D01F4920A0D1
:101D3000491C01F0D4FC206900280BD0C11FF939DF
:101D400008D0C11FFF39FA3904D0184918A0891CDE
:101D500001F0C5FCA069002806D0802804D01349F2
:101D600013A0C91C01F0BBFC25462035687F002864
:101D700002D006E0012070BD00202877204600F048
:101D800033F802206877211D206800F02DFC012027
:101D90006877002070BD0000002C01400004004066
:101DA000002000400044014000480140AA04000017
:101DB0002E2E2F447269766572732F53544D333231
:101DC000473078785F48414C5F4472697665722F7E
:101DD0005372632F73746D3332673078785F686144
:101DE0006C5F74696D2E63007047000070B5044627
:101DF00000681549884207D01449884204D08521DB
:101E0000890013A001F06BFC20466030017F01299E
:101E100018D0012101772422214680310B460A6027
:101E20002268116815686D086D001560012252075F
:101E300091430022626624682160202119600277A4
:101E4000104670BD022070BD003801400080004087
:101E50002E2E2F447269766572732F53544D333290
:101E6000473078785F48414C5F4472697665722FDD
:101E70005372632F73746D3332673078785F6861A3
:101E80006C5F756172745F65782E63007047000047
:101E9000F8B50D46044600682449884206D0244916
:101EA000884203D0234924A001F019FC002D17D04B
:101EB00001204006854213D04000854210D0032007
:101EC000400685420CD00120C006854208D005207E
:101ED0004006854204D09D21890017A001F0FFFB38
:101EE00026466036307F01281ED00120307724211D
:101EF000204680300090016020680768016849082A
:101F000049000160216888680722520690432843EF
:101F10008860204600F028FE206807600098202195
:101F2000016000203077F8BD0220F8BD0038014084
:101F300000800040730200002E2E2F4472697665E7
:101F400072732F53544D3332473078785F48414C89
:101F50005F4472697665722F5372632F73746D33A9
:101F600032673078785F68616C5F756172745F6545
:101F7000782E6300F8B50D46044600682349884270
:101F800006D02349884203D0224923A001F0A7FBB1
:101F9000002D16D001204007854212D04000854216
:101FA0000FD00320400785420BD08000854208D027
:101FB00005204007854204D0164917A0491C01F0AE
:101FC0008EFB26466036307F01281DD001203077F9
:101FD0002421204680300090016020680768016855
:101FE00049084900016020688168C900C90829437F
:101FF0008160204600F0B8FD20680760009820212D
:10200000016000203077F8BD0220F8BD00380140A3
:1020100000800040420200002E2E2F447269766537
:1020200072732F53544D3332473078785F48414CA8
:102030005F4472697665722F5372632F73746D33C8
:1020400032673078785F68616C5F756172745F6564
:10205000782E63007047704770470000F8B503683A
:102060000446DA691868996816072546360F8035E0
:10207000002E60D0584EFF2721370E4007403743CF
:1020800072D0D70706D0C70504D501271F62AB68F9
:102090003B43AB60930708D5CB0706D027680223E4
:1020A0003B62AB6804273B43AB60530708D5CB07C3
:1020B00006D0276804233B62AB6802273B43AB6032
:1020C000130709D520230340334305D0266808238E
:1020D0003362AE681E43AE60AB68002B38D0920608
:1020E0000AD520221040D2051140084304D0E16EE9
:1020F000002901D020468847A868216889684906D8
:1021000001D4000729D5204600F094FE206881689C
:1021100049061ED5826840218A438260A06F00284C
:1021200017D02E498163A06FFEF778F800280FD0F2
:10213000A06F816B0BE0960616D5012720263F077E
:1021400006400F403E430FD0E16E22E02046884714
:10215000F8BD2046FFF780FFF8BD2046FFF77CFF63
:102160000020A860F8BDFFE7D60208D54E0206D5CC
:102170000120000518622046FFF76DFFF2E7160602
:102180000AD501278026FF05064039400E4303D0BB
:10219000216F0029DAD1E5E751060DD541060BD5AF
:1021A0001A68204640218A431A60202129600021B4
:1021B000216700F0C3F8D5E7110205D5410003D52A
:1021C0002046FFF747FFCDE7D101CBD50028C9DA7C
:1021D0002046FFF75BFEC5E701000010212E000836
:1021E00070B504000FD0A06926490028264A274B65
:1021F00020680AD0884213D0904211D098420FD064
:10220000FF21333109E0012070BD884208D090429F
:1022100006D0984204D0FF2138311DA001F05FFAAA
:102220002046803005460068002805D100217C202A
:102230000155204600F04AF82420286020680168F3
:10224000490849000160204600F008FE0128DBD063
:10225000A06A002802D0204600F0B6FC2068416841
:102260000922D20291434160206881682A22914369
:10227000816020680168012211430160204600F05E
:102280009DFD70BD003801400044004000800040CA
:102290002E2E2F447269766572732F53544D33324C
:1022A000473078785F48414C5F4472697665722F99
:1022B0005372632F73746D3332673078785F68615F
:1022C0006C5F756172742E630000000010B586B0FB
:1022D000044614216846FDF75AFF154920688842D4
:1022E00024D114480268012189030A43026000686E
:1022F000084005900F484038426B02210A43426370
:10230000406B019108400590C02000900020029091
:102310000390049069460848FDF7D8FF0022022187
:102320001B20FEF7D5F91B20FEF7A2F906B010BD61
:102330000038014040100240000400507047FEE7A2
:10234000F0B587B014216846FDF721FF3048416B96
:10235000042529434163416B29400591416B2026A7
:1023600031434163416B31400591416B012211437F
:102370004163416B11400591426B02210A43426364
:10238000406B00220840059020212248FEF7DEF82D
:1023900021480327002400906946019702941F48B2
:1023A000FDF794FF69461E48019700950294FDF7DA
:1023B0008DFF1C4805252D07009069460197029462
:1023C0002846FDF783FF08200090174801906946D2
:1023D00002942846FDF77AFFFF201C3000906946E2
:1023E000019702940B48FDF771FF012001900294C0
:1023F0006946009603940748FDF768FF0022012113
:102400000620FEF765F90620FEF732F907B0F0BDA9
:10241000001002400004005040C0000000080050BE
:1024200000140050F39900000000111010B58EB098
:1024300000240794089409940A940B940C941C218A
:1024400068460D94FDF7A3FE01212048890701602D
:102450003F218460416063210461C160802181610A
:10246000FFF784F8002801D0FDF7D5FE0120000316
:10247000079007A91548FFF70DF9002801D0FDF7CF
:10248000CAFE1248FFF72CFC002801D0FDF7C3FE5E
:102490000B940BA90D480D94FEF7A6FF002801D060
:1024A000FDF7B9FE602000903120019002940822CF
:1024B000694604940548FFF7C3FA002801D0FDF7E8
:1024C000AAFE0248FFF796FA0EB010BD10000020D9
:1024D00010B5184816490160E12149024160002108
:1024E0008160C16001618161C16101620C22416250
:1024F00042618162FFF774FE002801D0FDF78BFE78
:1025000000210C48FFF736FD002801D0FDF783FEBF
:1025100000210848FFF7BCFC002801D0FDF77BFE36
:102520000448FFF763FC002801D0FDF774FE10BDDE
:102530000038014050000020FEE77047704710B59A
:10254000FEF740F810BD70B59CB038216846FDF725
:102550001EFE0024189419941A9428210EA81B9486
:10256000FDF715FE01204002FEF7DEF80A2000907C
:10257000FF200130039040200590082001260A909A
:102580000225069680030B90079500020C90089593
:10259000000104940D9009946846FEF737FC00286A
:1025A00001D072B6FEE7072018901A9402211995FF
:1025B0001B9418A8FEF79CFA002801D072B6FEE71B
:1025C0000EA80E960F94FEF7FDF8002801D072B603
:1025D000FEE71CB070BD000001200249C006886003
:1025E0007047000000ED00E0F0B502681A4B0124CE
:1025F000A4071A4D984203D0A04201D0A84203D1AB
:102600007026B2434E683243154E164F98420AD098
:10261000A04208D0A84206D0134CA04203D0B0423A
:1026200001D0B84204D103242402A243CC6822433F
:102630008024A2434C69224302608A68C2620A680D
:102640008262984203D0B04201D0B84201D10969F8
:10265000016301214161F0BD002C014000040040F4
:1026600000440140004801400020004030B584682B
:10267000FF252D021B021343AC430B43234383600E
:1026800030BD00008268034B1A400A4307210A4309
:10269000826070478FFFCFFFF8B50446006A0E4690
:1026A000400840002062216A6768A069284A1040FB
:1026B0008208306892001043009002208143B56880
:1026C00024480D43844205D02348844202D0234845
:1026D00084420FD1F068002805D0082803D0204993
:1026E00020A000F0FCFF28460821F5688843054338
:1026F000042085431748844205D01748844202D0FD
:10270000164884421DD1B069C11FFF39FA3906D07D
:10271000002804D0124913A00D3100F0E0FF7069C9
:10272000C11FF93906D0002804D00D490DA00E3183
:1027300000F0D5FF03200002874370693843B76972
:10274000074367600098A061706860632562F8BD08
:102750008FFFFEFF002C0140004401400048014073
:10276000B01700002E2E2F447269766572732F53B6
:10277000544D3332473078785F48414C5F4472693A
:102780007665722F5372632F73746D3332673078AE
:10279000785F68616C5F74696D2E6300F8B50446FC
:1027A000006A0F46102188432062216A6668A0698A
:1027B000274A10400322120290433A681202024351
:1027C000202081430092B868050122480D438442CD
:1027D00011D1F868002805D0082803D01E491FA091
:1027E00000F07DFF284680218843F9680D010543EC
:1027F0004020854305E02748844202D02648844291
:102800001FD1B869C11FFF39FA3906D0002804D09A
:10281000114912A00E3100F062FF7869C11FF93929
:1028200006D0002804D00C490CA00F3100F057FF4F
:102830000320800286437869B969800030438E00A6
:10284000064366600098A0617868A0632562F8BDC1
:10285000FF8FFFFE002C0140FB1700002E2E2F449F
:102860007269766572732F53544D333247307878DE
:102870005F48414C5F4472697665722F5372632FD3
:1028800073746D3332673078785F68616C5F746938
:102890006D2E63000044014000480140F8B5044635
:1028A000006A0E46FF21013188432062206A676872
:1028B000E169284A11408A08316892001143009169
:1028C000012149028843B1680D0205432248844230
:1028D00013D1F068002805D0082803D01F4920A094
:1028E00000F0FDFE0120C0028543F06801210002D6
:1028F000284389028843054605E02748844202D0E0
:10290000264884421FD1B069C11FFF39FA3906D069
:10291000002804D0114912A00D3100F0E0FE7069CA
:10292000C11FF93906D0002804D00C490CA00E3183
:1029300000F0D5FE0320000387437069B1690001F0
:1029400038430F01074367600098E0617068E063F7
:102950002562F8BD8FFFFEFF002C014046180000E5
:102960002E2E2F447269766572732F53544D333275
:10297000473078785F48414C5F4472697665722FC2
:102980005372632F73746D3332673078785F686188
:102990006C5F74696D2E6300004401400048014083
:1029A000F8B50446006A0E460121090388432062F7
:1029B000206A6568E169174A1140032212029143B7
:1029C000326812020A430121490388430092B16828
:1029D0000F0307431048844205D01048844202D0B8
:1029E0000F4884420FD17069C11FF93905D0002802
:1029F00003D00C490CA000F072FE01208003854337
:102A000070698001054365600098E061706820642A
:102A10002762F8BDFF8FFFFE002C014000440140FB
:102A200000480140921800002E2E2F4472697665EE
:102A300072732F53544D3332473078785F48414C8E
:102A40005F4472697665722F5372632F73746D33AE
:102A500032673078785F68616C5F74696D2E6300EF
:102A600070B5026A01263604B2430262036A426804
:102A7000446D0E4D2C400D6825437400A3430C8912
:102A800024041C430A4B984205D00A4B984202D0BA
:102A9000094B984203D14B69B2431B021A4342606F
:102AA000456549688165046270BD00008FFFFEFFC7
:102AB000002C0140004401400048014070B5026A0A
:102AC00001231B059A430262036A4268456D104C5C
:102AD00025400C6824022C4301256D05AB430D896C
:102AE0002D051D430B4B984205D00B4B984202D04D
:102AF0000A4B984206D101261346B6044A69B343ED
:102B000092021A43426044654968C165056270BD1E
:102B1000FF8FFFFE002C01400044014000480140AF
:102B200030B5036A046A6408640004628469F025AD
:102B3000AC43120122430A24A3430B438261036284
:102B400030BD30B5036A1024A34303628469036A6D
:102B50000F252D031203AC432243A024A3430901F4
:102B600019438261016230BDF0B513A106C985B079
:102B70000192009112A206CA039202910446416E8C
:102B80004034002915D000688168806809014D0F24
:102B9000400F02AE315C6F46385CC000FDF7AAFA08
:102BA0006085785D715DC000FDF7A4FA208505B0F1
:102BB000F0BD01206085F9E7010101030701000074
:102BC000080402040801010170B50446806AFF2868
:102BD00003D9694969A000F082FD208DC00711D09A
:102BE0000125E06A6D04002806D0A84204D062499D
:102BF00062A0491D00F073FD20684168E26AA943A4
:102C000011434160208D800711D50125206B2D04D3
:102C1000002806D0A84204D0574958A00C3100F033
:102C20005EFD20684168226BA94311434160208DFD
:102C3000400711D50125606BAD04002806D0A842DD
:102C400004D04D494DA0133100F049FD2068416882
:102C5000626BA94311434160208D000711D5012506
:102C6000A06BED03002806D0A84204D0424943A03F
:102C70001A3100F034FD21684868A26BA843104364
:102C80004860208DC00611D50125E06B2D0300287A
:102C900006D0A84204D0384938A0213100F01FFDE9
:102CA00020688168E26BA94311438160208D800612
:102CB00011D50125206C6D03002806D0A84204D050
:102CC0002D492EA0283100F00AFD21688868226C69
:102CD000A84310438860208D400636D536492068C9
:102CE000884204D0244925A02F3100F0F8FC0125AA
:102CF000606C2D05002806D0A84204D01E491FA0F4
:102D0000303100F0ECFC21684868626CA843104345
:102D10004860606CA84218D10325A06C6D0500289E
:102D20000DD001214905884209D04900884206D0CA
:102D3000A84204D0104911A0353100F0D0FC216820
:102D40004868A26CA84310434860208D000611D546
:102D50000125E06CED04002806D0A84204D0064905
:102D600006A03D3100F0BBFC20684168E26CA9433D
:102D70001143416070BD0000F50B00002E2E2F4462
:102D80007269766572732F53544D333247307878B9
:102D90005F48414C5F4472697665722F5372632FAE
:102DA00073746D3332673078785F68616C5F75611A
:102DB00072742E630000000000380140FEB5054625
:102DC000002680350446AE60FDF7F6FB01902068D2
:102DD0000068124F000709D501210097002249051C
:102DE0002046019B00F00EFC00280DD120680068F1
:102DF00040070BD501210097002289052046019B41
:102E000000F000FC002801D00320FEBD2020286037
:102E10006860603426770020FEBD0000FFFFFF01E0
:102E200010B5806A002201464031CA83CA82FFF78A
:102E300013F910BD01680A68FF2321339A430A6021
:102E400001688A68044B1A408A60202284210A5053
:102E50000021C16670470000FEFFFFEFF8B5044691
:102E60004068F9490025884203D3F849F8A000F0EA
:102E700036FC01210907A0680E14884208D00028FA
:102E800006D0B04204D0F149F1A0491C00F027FC63
:102E9000FE48226841148242E06806D100281FD013
:102EA00088421DD0E949091D17E0B0420CD0002826
:102EB0000AD003221203904206D0884204D0E3498C
:102EC000E3A0083100F00BFC206A002808D00121A3
:102ED000C902884204D0DD490931DDA000F0FFFBC2
:102EE000206900280CD001218902884208D00321E2
:102EF0004902884204D0D549D5A00C3100F0EFFB3F
:102F000060690C220146914301D1002804D1CF49C8
:102F1000CFA00D3100F0E3FBFF27A06901370028A7
:102F20000ED0B8420CD0C11FFF39FA3908D00321A6
:102F30000902884204D0C549C5A00E3100F0CFFB7C
:102F4000E069002808D00121C903884204D0B321D8
:102F50000901BFA000F0C3FB606A00281AD0012855
:102F600018D0022816D0032814D0042812D005281F
:102F700010D006280ED007280CD008280AD009281F
:102F800008D00A2806D00B2804D0B049B0A01031D0
:102F900000F0A5FB2169A068E2690843616911435B
:102FA0000843616E226801431068B94B184008431A
:102FB000106021684868032212039043E2681043BE
:102FC0004860B2492268A0698A4201D0236A184346
:102FD0009368B04E3340034393602068C26A636ACB
:102FE000120912011A43C262AB4B2268AB489A42E3
:102FF0000AD140698007800F26D0012828D00228F6
:1030000024D0032814D111E0A54B9A421CD08A4247
:103010000ED1436903208002034015D001208002B5
:103020001B1A15D01B1A11D0834201D1082600E0CB
:1030300010268A426FD1002E0CD0022E3BD0042ED7
:103040007CD0082E69D182E00026F2E70226F0E764
:103050000426EEE7FDF780FE72E0022129E0022857
:1030600012D0032812D0042812D0052812D0062826
:1030700012D0072812D0082812D0092812D00A2806
:1030800012D00B2814D111E0042112E0062110E027
:1030900008210EE00A210CE00C210AE0102108E0D2
:1030A000202106E0402104E0802102E0394600E0D2
:1030B000012110461AE0606A002815D0012824D0AA
:1030C000022824D0032824D0042827D0052827D07C
:1030D000062827D0072827D0082827D0092827D056
:1030E0000A2827D00B2827D001216E48FDF702F8C7
:1030F000002860D0616800914A008918814259D83F
:1031000000990903814255D356E00221EDE70421DD
:10311000EBE70621E9E755E110E04BE00821E4E7A1
:103120000A21E2E70C21E0E71021DEE72021DCE7BD
:103130004021DAE78021D8E73946D6E7FDF720FEBF
:103140000246606A0028B3D0012888D185E7606A0A
:10315000002815D0012817D0022817D0032817D02F
:10316000042817D0052817D0062817D0072817D00D
:10317000082817D0092817D00A2817D00B2817D0ED
:1031800001210120C003B1E70221FAE70421F8E799
:103190000621F6E70821F4E70A21F2E70C21F0E71F
:1031A0001021EEE72021ECE74021EAE78021E8E763
:1031B0003946E6E70125F9E1002E31D0022E73D021
:1031C000042E72D0082EF5D1606A002815D001288F
:1031D0006CD002286BD003286AD0042869D0052857
:1031E00068D0062867D0072866D008286FD009283D
:1031F0006ED00A286DD00B2800D0012700260120B0
:103200003A463346C0030021FCF78AFF020E09024A
:10321000114302020098400810187141009A79E0A9
:10322000FDF79AFDB5E001284FD0022852D00328BF
:1032300052D0042852D0052852D0062852D0072850
:1032400052D0082852D038E001127A00210B000039
:103250002E2E2F447269766572732F53544D33327C
:10326000473078785F48414C5F4472697665722FC9
:103270005372632F73746D3332673078785F68618F
:103280006C5F756172742E63000000000080004066
:10329000F369FFCFFFF4FF110038014040100240F6
:1032A000004400400024F4003EE070E076E077E067
:1032B00078E079E07AE07BE07CE0092818D00A2801
:1032C00018D00B2817D0012715E0022713E073E070
:1032D00074E075E004270EE006270CE008270AE0FA
:1032E0000A2708E00C2706E0102704E0202702E068
:1032F000402700E08027002608463A4633463146FC
:10330000FCF70EFF020E0902114362680302500827
:10331000181871410023FCF703FF03210902421A28
:10332000B5498A4277D945E7606A002815D0012857
:1033300019D0022819D0032819D0042819D005283B
:1033400019D0062819D0072819D0082819D009281B
:1033500019D00A2819D00B2800D0012700263A4698
:103360003346A6484FE70227F8E70427F6E7062783
:10337000F4E70827F2E70A27F0E70C27EEE7102723
:10338000ECE72027EAE74027E8E78027E6E7FDF7B4
:10339000F7FC0146606A002895D044E702272DE734
:1033A00004272BE7062729E7082727E70A2725E729
:1033B0000C2723E7102721E720271FE740271DE7D9
:1033C00080271BE70122E069D20390426FD1002ED3
:1033D00006D0022E36D0042E7BD0082EA3D17BE05F
:1033E000FDF7BAFC77E0012816D0022816D0032892
:1033F00016D0042816D0052816D0062816D007287F
:1034000016D0082816D0092816D00A2816D00B285E
:1034100015D0012713E0C7E0022710E004270EE0D3
:1034200006270CE008270AE00A2708E00C2706E038
:10343000102704E0202702E0402700E080273946DB
:1034400010461BE0606A002815D001282BD0022806
:103450002BD003282DD004282DD005282DD00628C8
:103460002DD007282DD008282DD009282DD00A28A6
:103470002DD00B2800D0012739466048FCF73AFED2
:10348000616840004A088018FCF734FE80B20146AB
:103490005B4A1039914200D98CE6511C014000076B
:1034A000400F084380E00227E6E70427E4E717E03F
:1034B0000FE00627E0E70827DEE70A27DCE70C270E
:1034C000DAE71027D8E72027D6E74027D4E7802778
:1034D000D2E7FDF755FC0246606A002899D082E7E2
:1034E000002E06D0022E35D0042E7ED0082ED3D149
:1034F0007EE0FDF731FC7AE0012815D0022815D0D6
:10350000032815D0042815D0052815D0062815D075
:10351000072815D0082815D0092815D00A2815D055
:103520000B2814D0012712E0022710E004270EE038
:1035300006270CE008270AE00A2708E00C2706E027
:10354000102704E0202702E0402700E080273946CA
:1035500010461BE0606A002815D0012830D00228F0
:1035600030D0032830D0042831D0052831D00628A7
:1035700031D0072831D0082831D0092831D00A2885
:1035800031D00B2800D0012739461C48FCF7B2FD8A
:1035900061684A088018FCF7ADFD80B20146184A00
:1035A0001039914200D905E62168C8602046012102
:1035B0004030418501850020E06620672846F8BD3F
:1035C0000227E1E70427DFE70627DDE70DE008270C
:1035D000DAE70A27D8E70C27D6E71027D4E7202711
:1035E000D2E74027D0E78027CEE7FDF7C9FB0246A8
:1035F000606A002896D07FE7FFFC0F000024F400EB
:10360000EFFF0000FFB581B017460E4604460A9D45
:1036100009E0681C07D0FCF7CFFF0499401AA842C4
:103620000CD8002D0AD02068C169304688431AD0D2
:103630000020B842EDD0002005B0F0BD2068016840
:10364000FF22A13291430160206881684908490046
:10365000816020212046803001604160002060347C
:1036600020770320E8E70120E3E7000010B50248D7
:10367000FEF7F4FC10BD0000500000208307FF227D
:10368000DB0E9A408907090E9940002808DB830861
:1036900009489B001B18186890430843186070473E
:1036A0000007000F0838830804489B001B18D869DE
:1036B00090430843D861704700E400E000ED00E06B
:1036C00002E008C8121F08C1002AFAD170477047EB
:1036D000002001E001C1121F002AFBD17047704792
:1036E000FCF778FFFEF72FFFFEF72AFEFEF79EFE9F
:1036F000FEF7EEFEFEE70000000000000000000004
:1037000000000000000000000000000000000000B9
:1037100000000000000000000100000002000000A6
:103720000300000004000000060000000700000085
:103730000800000009000000000000000000000078
:103740000000000000000000010000000200000076
:10375000030000000400000078370008000000208B
:1037600010000000C0360008883700081000002054
:10377000D0040000D0360008040000000100000062
:08378000000000000024F40029
:04000005080000C12E
:00000001FF
